:100000000C942A000C9447000C9447000C94470071
:100010000C94700E0C943D0E0C9447000C940A0E38
:100020000C9447000C94D70D0C94A40D0C94710DF6
:100030000C9447000C9447000C9447000C94470024
:100040000C9447000C9447000C9447000C94470014
:100050000C94470011241FBECFE5D8E0DEBFCDBF12
:1000600010E0A0E6B0E0E0E7F4E202C005900D92F7
:10007000AA37B107D9F710E0AAE7B0E001C01D9296
:10008000A538B107E1F70E9467080C9436120C946A
:100090000000EF92FF920F931F937B018C0120E0F1
:1000A00030E040E05FE40E94490388238CF0C801FF
:1000B000B70120E030E040E05FE40E94C1010E940F
:1000C000A9039B01AC01205030404040504806C07D
:1000D000C801B7010E94A9039B01AC01B901CA0183
:1000E0001F910F91FF90EF900895A0E0B0E0EBE733
:1000F000F0E00C94FF11DC012B01FA019C9192308D
:1001000008F439C1EB018881823008F433C194309E
:1001100069F4843009F02FC111969C91119789815F
:10012000981709F428C1A0E6B0E025C1843009F48D
:1001300021C18230A9F4923009F01DC19A01AD01AC
:1001400088E0EA010990AE01E90109929E0181501F
:10015000C1F7E201898111969C918923818308C1AD
:10016000923009F407C112962D903C901397EB0141
:100170008A819B811496AD90BD90CD90DC901797AD
:10018000EC80FD800E811F819101281B390BB90184
:1001900037FF04C066277727621B730B6032710537
:1001A0000CF061C0121613066CF537014801062EDB
:1001B00004C096948794779467940A94D2F721E0C8
:1001C00030E040E050E004C0220F331F441F551FB1
:1001D0006A95D2F721503040404050402E213F21B7
:1001E00040235123211531054105510521F021E01E
:1001F00030E040E050E079018A01E628F72808293C
:1002000019293CC0232BD1F1260E371E350146019A
:10021000062E04C096948794779467940A94D2F734
:1002200021E030E040E050E004C0220F331F441FC3
:10023000551F6A95D2F721503040404050402A2146
:100240003B214C215D21211531054105510521F04E
:1002500021E030E040E050E059016A01A628B728CB
:10026000C828D9280BC0821593052CF01C01AA249C
:10027000BB24650103C0EE24FF24870111969C91E5
:10028000D20111968C91981709F445C0992339F041
:10029000A80197012A193B094C095D0906C0A6016E
:1002A00095012E193F09400B510B57FD08C01182D3
:1002B0003382228224833583468357831DC081E0A5
:1002C00081833382228288279927DC01821B930B4A
:1002D000A40BB50B84839583A683B7830DC0220F2F
:1002E000331F441F551F24833583468357838281E0
:1002F000938101979383828324813581468157813D
:10030000DA01C9010197A109B1098F5F9F4FAF4F72
:10031000BF4328F30BC0918333822282EA0CFB1C7B
:100320000C1D1D1DE482F5820683178383E0808304
:10033000248135814681578157FF1AC0C901AA27F8
:1003400097FDA095BA2F81709070A070B0705695EF
:10035000479537952795822B932BA42BB52B848318
:100360009583A683B7838281938101969383828349
:10037000DF0101C0D201CD01CDB7DEB7E2E10C94BF
:100380001B12A0E2B0E0E7ECF1E00C940B126983E1
:100390007A838B839C832D833E834F835887E9E048
:1003A000EE2EF12CEC0EFD1ECE010196B7010E943F
:1003B000D2048E010F5E1F4FCE010596B8010E9438
:1003C000D2048A8991E089278A8BC701B801AE01DE
:1003D000475E5F4F0E9475000E94FD03A096E6E015
:1003E0000C942712A0E2B0E0E8EFF1E00C940B12BD
:1003F00069837A838B839C832D833E834F835887C5
:10040000F9E0EF2EF12CEC0EFD1ECE010196B701A6
:100410000E94D2048E010F5E1F4FCE010596B801D7
:100420000E94D204C701B801AE01475E5F4F0E942F
:1004300075000E94FD03A096E6E00C942712A0E24E
:10044000B0E0E5E2F2E00C94FF1169837A838B83DC
:100450009C832D833E834F835887CE010196BE0136
:10046000675F7F4F0E94D204CE010596BE016F5E8A
:100470007F4F0E94D2049985923088F0898982301A
:10048000C8F0943019F4823051F404C0843029F457
:10049000923081F480E690E0C6C0923049F420E0CA
:1004A0009A858A89981321E02A87CE010996BBC0D4
:1004B000823049F420E09A858A89981321E02A8BBA
:1004C000CE014196B0C02D843E844F8458886D88FB
:1004D0007E888F88988CEE24FF248701AA24BB2471
:1004E000650140E050E060E070E0E0E0F0E0C10174
:1004F00081709070892BE9F0E60CF71C081D191D1E
:100500009A01AB012A0D3B1D4C1D5D1D80E090E062
:10051000A0E0B0E0E614F7040805190520F481E036
:1005200090E0A0E0B0E0BA01A901480F591F6A1F8E
:100530007B1FAA0CBB1CCC1CDD1C97FE08C081E0F5
:1005400090E0A0E0B0E0A82AB92ACA2ADB2A3196B6
:10055000E032F10549F0660C771C881C991C569412
:10056000479437942794C3CFFA85EA892B893C892D
:100570008B859C85280F391F2E5F3F4F17C0CA01FE
:1005800081709070892B61F016950795F794E79428
:1005900080E090E0A0E0B0E8E82AF92A0A2B1B2BC3
:1005A00076956795579547952F5F3F4F77FDE7CF36
:1005B0000CC0440F551F661F771F17FD4160EE0CDE
:1005C000FF1C001F111F21503040403090E05907A0
:1005D00090E0690790E4790760F32B8F3C8FDB0193
:1005E000CA018F779070A070B07080349105A1051A
:1005F000B10561F447FD0AC0E114F10401051105DC
:1006000029F0405C5F4F6F4F7F4F40781A8EFE1786
:1006100011F081E08A8F4D8F5E8F6F8F78A383E01A
:10062000898FCE0149960E94FD03A096E2E10C94C9
:100630001B12A8E1B0E0EFE1F3E00C940B12698328
:100640007A838B839C832D833E834F83588789E0F5
:10065000E82EF12CEC0EFD1ECE010196B7010E9492
:10066000D2048E010F5E1F4FCE010596B8010E9485
:10067000D2048985823040F08989823028F0C70110
:10068000B8010E944A0501C08FEF6896E6E00C941D
:100690002712A8E1B0E0EFE4F3E00C940B126983B9
:1006A0007A838B839C832D833E834F83588789E095
:1006B000E82EF12CEC0EFD1ECE010196B7010E9432
:1006C000D2048E010F5E1F4FCE010596B8010E9425
:1006D000D2048985823040F08989823028F0C701B0
:1006E000B8010E944A0501C08FEF6896E6E00C94BD
:1006F0002712A8E1B0E0EFE7F3E00C940B12698356
:100700007A838B839C832D833E834F83588789E034
:10071000E82EF12CEC0EFD1ECE010196B7010E94D1
:10072000D2048E010F5E1F4FCE010596B8010E94C4
:10073000D2048985823040F08989823028F0C7014F
:10074000B8010E944A0501C081E06896E6E00C9479
:100750002712ACE0B0E0EFEAF3E00C940F126983EB
:100760007A838B839C83CE010196BE016B5F7F4FA2
:100770000E94D2048D81823061F1823050F1843048
:1007800021F48E81882351F12EC02F81388537FDC9
:1007900020C06E812F3131051CF06623F9F023C093
:1007A0008EE190E0821B930B29853A854B855C8511
:1007B00004C056954795379527958A95D2F76623B5
:1007C000B1F050954095309521953F4F4F4F5F4F79
:1007D0000EC020E030E040E050E009C02FEF3FEFD6
:1007E0004FEF5FE704C020E030E040E050E8B9019F
:1007F000CA012C96E2E00C942B12DF92EF92FF924A
:100800000F931F93FC01E480F58006811781D1804E
:100810008081823048F480E090E0A0E1B0E0E82AF6
:10082000F92A0A2B1B2BA5C0843009F49FC0823003
:1008300021F4EE24FF24870105C0E114F104010531
:10084000110519F4E0E0F0E096C0628173819FEF3A
:10085000623879070CF05BC022E83FEF261B370BAC
:100860002A3131052CF020E030E040E050E02AC091
:10087000B801A701022E04C0769567955795479554
:100880000A94D2F781E090E0A0E0B0E004C0880FC5
:10089000991FAA1FBB1F2A95D2F70197A109B10979
:1008A0008E219F21A023B1230097A105B10521F03E
:1008B00081E090E0A0E0B0E09A01AB01282B392B59
:1008C0004A2B5B2BDA01C9018F779070A070B07052
:1008D00080349105A105B10539F427FF09C0205CDA
:1008E0003F4F4F4F5F4F04C0215C3F4F4F4F5F4F13
:1008F000E0E0F0E02030A0E03A07A0E04A07A0E402
:100900005A0710F0E1E0F0E079018A0127C0603871
:10091000710564F5FB01E158FF4FD801C7018F77DE
:100920009070A070B07080349105A105B10539F4C4
:10093000E7FE0DC080E490E0A0E0B0E004C08FE3EB
:1009400090E0A0E0B0E0E80EF91E0A1F1B1F17FFA1
:1009500005C016950795F794E794319687E01695AC
:100960000795F794E7948A95D1F705C0EE24FF2404
:100970008701EFEFF0E06E2F679566276795902F60
:100980009F77D794DD24D7948E2F8695492F462BB9
:10099000582F5D29B701CA011F910F91FF90EF9069
:1009A000DF900895FC01DB01408151812281622F9B
:1009B0006F7770E0221F2227221F9381892F880FD3
:1009C000822B282F30E0991F9927991F11969C930D
:1009D000119721153105A9F54115510561057105DD
:1009E00011F482E037C082E89FEF13969C938E93B8
:1009F00012979A01AB0167E0220F331F441F551F66
:100A00006A95D1F783E08C930DC0220F331F441FEA
:100A1000551F12968D919C911397019713969C9355
:100A20008E931297203080E0380780E0480780E4FA
:100A3000580758F314962D933D934D935C93179755
:100A400008952F3F310579F4411551056105710570
:100A500019F484E08C93089564FF03C081E08C93C3
:100A600012C01C9210C02F57304013963C932E9307
:100A7000129783E08C9387E0440F551F661F771F02
:100A80008A95D1F7706414964D935D936D937C9322
:100A9000179708951F93DC01FB019C91923008F495
:100AA00047C08081823008F443C0943051F41196DD
:100AB0001C91843099F58181682F70E0611B710968
:100AC0003FC0843021F0923031F48230B9F181811D
:100AD000882389F12DC011961C9111978230F1F075
:100AE00081811817D9F412962D913C911397828128
:100AF00093818217930794F028173907BCF0149656
:100B00008D919D910D90BC91A02D248135814681C0
:100B10005781281739074A075B0718F4112341F05A
:100B20000AC082179307A407B50740F4112319F0F0
:100B300061E070E005C06FEF7FEF02C060E070E041
:100B4000CB011F910895DF93CF93CDB7DEB78FE62A
:100B500090E00E94CE1086E790E00E94351084EF6E
:100B600097E061E00E94FC0F88E690E00E94A30EEF
:100B70000E94F10C0E94AD080E948408AFE5B0E02D
:100B8000EFE5F0E0808180688C93CF91DF9108954C
:100B9000DF93CF93CDB7DEB760970FB6F894DEBF83
:100BA0000FBECDBF188A1F8683C00E944E11888B4E
:100BB0008F85882F90E08F5E9C4F68890E94120974
:100BC00080E090E0A0E2B1E48B879C87AD87BE8790
:100BD0006B857C858D859E8520E030E04AEF54E46E
:100BE0000E941F02DC01CB018F839887A987BA87F7
:100BF0006F81788589859A8520E030E040E85FE361
:100C00000E94790388232CF481E090E09E838D83F9
:100C10003FC06F81788589859A8520E03FEF4FE757
:100C200057E40E94190318164CF56B857C858D8559
:100C30009E8520E030E040E251E40E941F02DC018A
:100C4000CB01BC01CD010E944900DC01CB019E8398
:100C50008D830FC088EC90E09C838B838B819C817B
:100C60000197F1F79C838B838D819E8101979E83F1
:100C70008D838D819E81009769F714C06F8178857F
:100C800089859A850E944900DC01CB019E838D8372
:100C90008D819E819A83898389819A810197F1F759
:100CA0009A83898380E20E9437118F858F5F8F87B7
:100CB0008F85853008F479CF60960FB6F894DEBF43
:100CC0000FBECDBFCF91DF910895DF93CF93CDB706
:100CD000DEB761970FB6F894DEBF0FBECDBF1F869B
:100CE000A6C08F85882F90E08F5E9C4F9E012F5E5F
:100CF0003F4FB9010E94530980E090E0A0E2B1E4C7
:100D00008B879C87AD87BE876B857C858D859E850F
:100D100020E030E04AEF54E40E941F02DC01CB01E6
:100D20008F839887A987BA876F81788589859A8507
:100D300020E030E040E85FE30E94790388232CF450
:100D400081E090E09E838D833FC06F8178858985A7
:100D50009A8520E03FEF4FE757E40E9419031816E9
:100D60004CF56B857C858D859E8520E030E040E2EA
:100D700051E40E941F02DC01CB01BC01CD010E94A5
:100D80004900DC01CB019E838D830FC088EC90E08D
:100D90009C838B838B819C810197F1F79C838B8350
:100DA0008D819E8101979E838D838D819E81009789
:100DB00069F714C06F81788589859A850E944900FA
:100DC000DC01CB019E838D838D819E819A838983F3
:100DD00089819A810197F1F79A8389830E944E1144
:100DE000888B998988898917E1F080917C008F5FD1
:100DF00080937C0080917C00833079F410927C0099
:100E000010927B0010927A0084E08093840083E249
:100E10000E9437110E94950812C082E20E94371189
:100E20000EC080E20E9437118F858F5F8F878F857C
:100E3000853008F456CF10927C000E94C805619658
:100E40000FB6F894DEBF0FBECDBFCF91DF910895EE
:100E5000DF93CF93CDB7DEB761970FB6F894DEBFBF
:100E60000FBECDBF1F86A6C08F85882F90E08F5EF6
:100E70009C4F9E012F5E3F4FB9010E94530980E0B5
:100E800090E0A0E2B1E48B879C87AD87BE876B853D
:100E90007C858D859E8520E030E04AEF54E40E94F9
:100EA0001F02DC01CB018F839887A987BA876F81E6
:100EB000788589859A8520E030E040E85FE30E94EC
:100EC000790388232CF481E090E09E838D833FC0DA
:100ED0006F81788589859A8520E03FEF4FE757E459
:100EE0000E94190318164CF56B857C858D859E85AF
:100EF00020E030E040E251E40E941F02DC01CB011F
:100F0000BC01CD010E944900DC01CB019E838D8391
:100F10000FC088EC90E09C838B838B819C81019730
:100F2000F1F79C838B838D819E8101979E838D83B6
:100F30008D819E81009769F714C06F8178858985BE
:100F40009A850E944900DC01CB019E838D838D81AF
:100F50009E819A83898389819A810197F1F79A8387
:100F600089830E944E11888B998988898917E1F0BD
:100F700080917D008F5F80937D0080917D00833024
:100F800079F410927D0010927B0010927A0084E038
:100F90008093840083E20E9437110E9495081BC051
:100FA00082E20E94371117C080E20E9437118F85BC
:100FB0008F5F8F878F85853008F456CF10927D0024
:100FC00010927B0010927A0081E08093840081E08F
:100FD00064E60E94CD0861960FB6F894DEBF0FBE9E
:100FE000CDBFCF91DF910895DF93CF9300D0CDB7E0
:100FF000DEB780917A0090917B00019690937B0000
:1010000080937A0080918400282F30E03A832983EE
:1010100089819A818230910549F129813A81233071
:10102000310534F489819A818130910561F04AC09B
:1010300029813A812330310561F189819A81843097
:101040009105A9F13FC080917A0090917B008F308B
:101050009105C1F510927B0010927A0082E0809396
:10106000840080E060E00E94CD082CC00E94FD0C4E
:10107000882341F510927B0010927A0083E08093E0
:10108000840085E20E94371182E064E60E94CD0868
:1010900019C080917A0090917B008F30910591F476
:1010A0001092840080E060E00E94CD080BC0809127
:1010B0007A0090917B008C33910521F4109284008A
:1010C0000E94A1080F900F90CF91DF910895DF93B8
:1010D000CF930F92CDB7DEB70E94A3050E94C8053B
:1010E0001982809184008430E1F30E944E1189833B
:1010F0008981873219F40E942807F3CF89818632CB
:1011000081F70E946506EDCFDF93CF93CDB7DEB7B1
:1011100082E067E041E00E94B30982E067E040E0DE
:101120000E949E0ACF91DF910895DF93CF93CDB7B0
:10113000DEB782E067E041E00E949E0ACF91DF9136
:101140000895DF93CF93CDB7DEB782E067E040E04C
:101150000E949E0ACF91DF910895DF93CF93CDB780
:10116000DEB783E066E041E00E94B30983E067E018
:1011700041E00E94B30981E063E041E00E94B309CD
:1011800083E066E040E00E949E0A83E067E040E082
:101190000E949E0ACF91DF910895DF93CF9300D0F4
:1011A00000D0CDB7DEB789836A838A810E94080D9B
:1011B0008981282F30E03C832B838B819C81813077
:1011C0009105A1F02B813C8122303105D1F08B813A
:1011D0009C81009701F583E066E040E00E949E0A52
:1011E00083E067E040E00E949E0A15C083E066E06D
:1011F00041E00E949E0A83E067E040E00E949E0A70
:101200000AC083E066E040E00E949E0A83E067E057
:1012100041E00E949E0A0F900F900F900F90CF9187
:10122000DF910895DF93CF9300D000D0CDB7DEB724
:101230009A8389836B830E9467100E94BF10883055
:1012400011F01C8228C089819A8180709770880F64
:10125000892F881F990B9195806A0E9482100E94A5
:10126000BF10883111F01C8216C089810E94821043
:101270000E94BF10883211F01C820DC08B810E9429
:1012800082100E94BF10883211F01C8204C00E949C
:10129000771081E08C838C810F900F900F900F90CE
:1012A000CF91DF910895DF93CF9300D000D00F92BC
:1012B000CDB7DEB79A8389837C836B830E946710E6
:1012C0000E94BF10883011F01D8244C089819A812C
:1012D00080709770880F892F881F990B9195806A6D
:1012E0000E9482100E94BF10883111F01D8232C00E
:1012F00089810E9482100E94BF10883211F01D82E5
:1013000029C00E9467100E94BF10803111F01D8219
:1013100021C089819A8180709770880F892F881FDA
:10132000990B9195816A0E9482100E94BF108034AF
:1013300011F01D820FC00E94AC10EB81FC818083F4
:101340000E94BF10883511F01D8204C00E947710E2
:1013500081E08D838D810F900F900F900F900F90F3
:10136000CF91DF910895DF93CF9300D000D00F92FB
:10137000CDB7DEB789836A834B838A81883008F0D2
:10138000D5C08981843008F0D1C08981282F30E010
:101390003D832C838C819D818130910509F443C06C
:1013A0002C813D81223031052CF48C819D81009768
:1013B00071F0BCC02C813D812230310509F45FC041
:1013C0008C819D818330910509F485C0AFC08B81EC
:1013D0008130A1F4AAE3B0E0EAE3F0E08081482F95
:1013E0008A81282F30E081E090E0022E02C0880F31
:1013F000991F0A94E2F7842B8C9398C0AAE3B0E07B
:10140000EAE3F0E08081482F8A81282F30E081E0F4
:1014100090E0022E02C0880F991F0A94E2F780958F
:1014200084238C9383C08B818130A1F4A7E3B0E047
:10143000E7E3F0E08081482F8A81282F30E081E0C7
:1014400090E0022E02C0880F991F0A94E2F7842BC5
:101450008C936CC0A7E3B0E0E7E3F0E08081482F15
:101460008A81282F30E081E090E0022E02C0880FB0
:10147000991F0A94E2F7809584238C9357C08B813F
:101480008130A1F4A4E3B0E0E4E3F0E08081482FF0
:101490008A81282F30E081E090E0022E02C0880F80
:1014A000991F0A94E2F7842B8C9340C0A4E3B0E028
:1014B000E4E3F0E08081482F8A81282F30E081E04A
:1014C00090E0022E02C0880F991F0A94E2F78095DF
:1014D00084238C932BC08B818130A1F4A1E3B0E0F5
:1014E000E1E3F0E08081482F8A81282F30E081E01D
:1014F00090E0022E02C0880F991F0A94E2F7842B15
:101500008C9314C0A1E3B0E0E1E3F0E08081482FC8
:101510008A81282F30E081E090E0022E02C0880FFF
:10152000991F0A94E2F7809584238C930F900F9073
:101530000F900F900F90CF91DF910895DF93CF938D
:1015400000D000D00F92CDB7DEB789836A834B837A
:101550008A81883008F0D5C08981843008F0D1C0F4
:101560008981282F30E03D832C838C819D818130BF
:10157000910509F443C02C813D81223031052CF4C2
:101580008C819D81009771F0BCC02C813D812230FF
:10159000310509F45FC08C819D818330910509F488
:1015A00085C0AFC08B818130A1F4ABE3B0E0EBE349
:1015B000F0E08081482F8A81282F30E081E090E0A0
:1015C000022E02C0880F991F0A94E2F7842B8C9395
:1015D00098C0ABE3B0E0EBE3F0E08081482F8A8174
:1015E000282F30E081E090E0022E02C0880F991F82
:1015F0000A94E2F7809584238C9383C08B81813099
:10160000A1F4A8E3B0E0E8E3F0E08081482F8A810C
:10161000282F30E081E090E0022E02C0880F991F51
:101620000A94E2F7842B8C936CC0A8E3B0E0E8E363
:10163000F0E08081482F8A81282F30E081E090E01F
:10164000022E02C0880F991F0A94E2F78095842326
:101650008C9357C08B818130A1F4A5E3B0E0E5E322
:10166000F0E08081482F8A81282F30E081E090E0EF
:10167000022E02C0880F991F0A94E2F7842B8C93E4
:1016800040C0A5E3B0E0E5E3F0E08081482F8A8127
:10169000282F30E081E090E0022E02C0880F991FD1
:1016A0000A94E2F7809584238C932BC08B81813040
:1016B000A1F4A2E3B0E0E2E3F0E08081482F8A8168
:1016C000282F30E081E090E0022E02C0880F991FA1
:1016D0000A94E2F7842B8C9314C0A2E3B0E0E2E317
:1016E000F0E08081482F8A81282F30E081E090E06F
:1016F000022E02C0880F991F0A94E2F78095842376
:101700008C930F900F900F900F900F90CF91DF91CF
:101710000895DF93CF9300D000D00F92CDB7DEB7FE
:101720008A836B8319828B81883008F084C08A8118
:10173000843008F080C08A81282F30E03D832C83DC
:101740004C815D814130510579F18C819D818230E0
:10175000910534F42C813D812115310569F06BC070
:101760004C815D8142305105B9F18C819D8183307E
:10177000910509F449C05FC0E9E3F0E08081282FBA
:1017800030E08B81882F90E0A90102C055954795E4
:101790008A95E2F7CA0181709070882319F081E080
:1017A000898349C0198247C0E6E3F0E08081282F91
:1017B00030E08B81882F90E0A90102C055954795B4
:1017C0008A95E2F7CA0181709070882319F081E050
:1017D000898331C019822FC0E3E3F0E08081282F94
:1017E00030E08B81882F90E0A90102C05595479584
:1017F0008A95E2F7CA0181709070882319F081E020
:10180000898319C0198217C0E0E3F0E08081282F96
:1018100030E08B81882F90E0A90102C05595479553
:101820008A95E2F7CA0181709070882319F081E0EF
:10183000898301C0198289810F900F900F900F90BA
:101840000F90CF91DF910895DF93CF9300D000D018
:10185000CDB7DEB789836A838981843090F5898129
:10186000282F30E03C832B838B819C818130910534
:10187000D1F02B813C81223031052CF48B819C816D
:10188000009761F01EC02B813C812230310581F030
:101890008B819C818330910581F013C0EAE3F0E0F5
:1018A0008A8180830EC0E7E3F0E08A81808309C0EB
:1018B000E4E3F0E08A81808304C0E1E3F0E08A8120
:1018C00080830F900F900F900F90CF91DF9108952C
:1018D000DF93CF9300D000D0CDB7DEB789836A8382
:1018E0008981843090F58981282F30E03C832B83D7
:1018F0008B819C8181309105D1F02B813C812230FC
:1019000031052CF48B819C81009761F01EC02B81E6
:101910003C812230310581F08B819C81833091059F
:1019200081F013C0EBE3F0E08A8180830EC0E8E32E
:10193000F0E08A81808309C0E5E3F0E08A8180835A
:1019400004C0E2E3F0E08A8180830F900F900F9053
:101950000F90CF91DF910895DF93CF9300D000D007
:10196000CDB7DEB78A8319828A81843090F58A8167
:10197000282F30E03C832B838B819C818130910523
:10198000D1F02B813C81223031052CF48B819C815C
:10199000009761F01EC02B813C812230310581F01F
:1019A0008B819C818330910581F013C0E9E3F0E0E5
:1019B000808189830EC0E6E3F0E08081898309C0DD
:1019C000E3E3F0E08081898304C0E0E3F0E080811C
:1019D000898389810F900F900F900F90CF91DF91A5
:1019E0000895DF93CF93CDB7DEB782E062E040E0A9
:1019F0000E94B309CF91DF910895DF93CF93CDB7C4
:101A0000DEB782E062E00E94890BCF91DF910895FA
:101A1000DF93CF930F92CDB7DEB78983A3E5B0E014
:101A2000E3E5F0E080818F778C93A3E5B0E0E3E518
:101A3000F0E0808180648C93A3E5B0E0E3E5F0E022
:101A4000808188608C93A3E5B0E0E3E5F0E08081DD
:101A500080628C93A3E5B0E0E3E5F0E080818F7EC7
:101A60008C93A3E5B0E0E3E5F0E080818B7F8C937D
:101A7000A3E5B0E0E3E5F0E0808182608C93A3E52C
:101A8000B0E0E3E5F0E0808181608C9381E063E089
:101A900041E00E94B309E2E5F0E0108289818536D9
:101AA00010F084E68983ECE5F0E08981482F50E06E
:101AB000CA019C01220F331FC9019695982F8827D0
:101AC00097958795821B930B840F951F24E630E032
:101AD000B9010E94C911CB0180830F90CF91DF9192
:101AE00008951F920F920FB60F9211242F933F93D8
:101AF0004F935F936F937F938F939F93AF93BF9316
:101B0000EF93FF93DF93CF93CDB7DEB780917E0045
:101B100090917F00009729F0E0917E00F0917F0086
:101B20000995CF91DF91FF91EF91BF91AF919F9177
:101B30008F917F916F915F914F913F912F910F9076
:101B40000FBE0F901F9018951F920F920FB60F9215
:101B500011242F933F934F935F936F937F938F93B2
:101B60009F93AF93BF93EF93FF93DF93CF93CDB743
:101B7000DEB780917E0090917F00009729F0E09180
:101B80007E00F0917F000995CF91DF91FF91EF9159
:101B9000BF91AF919F918F917F916F915F914F9185
:101BA0003F912F910F900FBE0F901F9018951F928D
:101BB0000F920FB60F9211242F933F934F935F9381
:101BC0006F937F938F939F93AF93BF93EF93FF9305
:101BD000DF93CF93CDB7DEB78091800090918100E5
:101BE000009729F0E0918000F09181000995CF9154
:101BF000DF91FF91EF91BF91AF919F918F917F9175
:101C00006F915F914F913F912F910F900FBE0F9069
:101C10001F9018951F920F920FB60F9211242F93B9
:101C20003F934F935F936F937F938F939F93AF9364
:101C3000BF93EF93FF93DF93CF93CDB7DEB7809140
:101C4000800090918100009729F0E0918000F09150
:101C500081000995CF91DF91FF91EF91BF91AF91F5
:101C60009F918F917F916F915F914F913F912F91B4
:101C70000F900FBE0F901F9018951F920F920FB6E6
:101C80000F9211242F933F934F935F936F937F9302
:101C90008F939F93AF93BF93EF93FF93DF93CF9374
:101CA000CDB7DEB78091820090918300009729F034
:101CB000E0918200F09183000995CF91DF91FF912F
:101CC000EF91BF91AF919F918F917F916F915F91B4
:101CD0004F913F912F910F900FBE0F901F9018952D
:101CE0001F920F920FB60F9211242F933F934F9391
:101CF0005F936F937F938F939F93AF93BF93EF9374
:101D0000FF93DF93CF93CDB7DEB7809182009091A0
:101D10008300009729F0E0918200F09183000995FB
:101D2000CF91DF91FF91EF91BF91AF919F918F91F3
:101D30007F916F915F914F913F912F910F900FBEC7
:101D40000F901F901895DF93CF9300D000D0CDB7A0
:101D5000DEB79A838983E981FA818481282F30E074
:101D60003C832B838B819C818130910509F44CC08D
:101D70002B813C812230310509F488C08B819C8104
:101D8000009709F0C3C0A2E5B0E0E981FA81808143
:101D900091818C93E3E5F0E080E88083A9E5B0E0F1
:101DA000E9E5F0E0808181608C93E981FA818681A8
:101DB0008130E1F4A3E5B0E0E3E5F0E08081886004
:101DC0008C93ACE5B0E0E981FA81828193818C93B8
:101DD000A9E5B0E0E9E5F0E080818E7F8C93A9E58C
:101DE000B0E0E9E5F0E0808182608C93A3E5B0E0AB
:101DF000E3E5F0E08081982F987FE981FA81858181
:101E00008770892B8C9382C0ACE4B0E0E981FA81C1
:101E10008081918111969C938E93EFE4F0E08CE0A9
:101E20008083A9E5B0E0E9E5F0E0808184608C93EF
:101E3000E981FA8186818130D9F4EEE4F0E088E02E
:101E40008083AAE4B0E0E981FA81828193811196CE
:101E50009C938E93A9E5B0E0E9E5F0E080818B7F6B
:101E60008C93A9E5B0E0E9E5F0E0808180618C9396
:101E7000AEE4B0E0EEE4F0E08081982F987FE98155
:101E8000FA8185818770892B8C9340C0A4E4B0E0EF
:101E9000E981FA81808191818C93E5E4F0E080E82A
:101EA0008083A9E5B0E0E9E5F0E0808180648C936F
:101EB000E981FA8186818130E1F4A5E4B0E0E5E4CE
:101EC000F0E0808188608C93A3E4B0E0E981FA813E
:101ED000828193818C93A9E5B0E0E9E5F0E080810F
:101EE0008F7B8C93A9E5B0E0E9E5F0E08081806824
:101EF0008C93A5E4B0E0E5E4F0E08081982F987F32
:101F0000E981FA8185818770892B8C930F900F90DE
:101F10000F900F90CF91DF910895DF93CF9300D072
:101F20000F92CDB7DEB789838981282F30E03B83BC
:101F30002A838A819B818130910519F12A813B8115
:101F400022303105D9F18A819B81009709F04EC07A
:101F5000A9E5B0E0E9E5F0E080818E7F8C93A9E50A
:101F6000B0E0E9E5F0E080818D7F8C93E3E5F0E07F
:101F70001082E2E5F0E0108210927F0010927E0065
:101F800035C0A9E5B0E0E9E5F0E080818B7F8C9376
:101F9000A9E5B0E0E9E5F0E080818F7E8C93EFE485
:101FA000F0E01082EEE4F0E01082ECE4F0E0118268
:101FB0001082109281001092800018C0A9E5B0E054
:101FC000E9E5F0E080818F7B8C93A9E5B0E0E9E55D
:101FD000F0E080818F778C93E5E4F0E01082E4E418
:101FE000F0E0108210928300109282000F900F9008
:101FF0000F90CF91DF910895DF93CF9300D000D061
:102000000F92CDB7DEB79A8389836B838B81282F9C
:1020100030E03D832C838C819D818130910581F05E
:102020002C813D812230310591F08C819D8100977A
:10203000A1F489819A8190937F0080937E000DC0E6
:1020400089819A81909381008093800006C0898164
:102050009A8190938300809382000F900F900F904D
:102060000F900F90CF91DF910895DF93CF9300D021
:10207000CDB7DEB79A838983E981FA81828188238B
:1020800029F4E0E2F0E082E380830EC0E981FA8186
:102090008281813029F4E0E2F0E082E0808304C0B4
:1020A000E0E2F0E082E38083E1E2F0E01082A2E28D
:1020B000B0E0E981FA81808191818C93E6E5F0E0DE
:1020C00084E080830F900F90CF91DF910895DF938C
:1020D000CF93CDB7DEB7E6E5F0E084EA8083E6E5AE
:1020E000F0E080818823DCF7CF91DF910895DF93C2
:1020F000CF93CDB7DEB7E6E5F0E084E98083CF91FA
:10210000DF910895DF93CF930F92CDB7DEB7898328
:10211000E3E2F0E089818083E6E5F0E084E8808313
:10212000E6E5F0E080818823DCF70F90CF91DF9126
:102130000895DF93CF93CDB7DEB7E6E5F0E084EC0A
:102140008083E6E5F0E080818823DCF7E3E2F0E0DD
:102150008081CF91DF910895DF93CF93CDB7DEB724
:10216000E6E5F0E084E88083E6E5F0E0808188231E
:10217000DCF7E3E2F0E08081CF91DF910895DF9317
:10218000CF930F92CDB7DEB7E1E2F0E08081887F98
:10219000898389810F90CF91DF910895DF93CF9349
:1021A00000D000D0CDB7DEB79C838B831A82198212
:1021B000EBE2F0E082E08083EAE2F0E088E1808315
:1021C000A0E4B0E0EB81FC818081882F90E0880F53
:1021D000991F282F2068EB81FC818181882F90E056
:1021E00082959295907F9827807F9827282BEB8166
:1021F000FC818281882F90E0880F991F880F991F9A
:10220000880F991F822B8C93EB81FC8183819481B1
:10221000A581B681880F991FAA1FBB1F880F991F20
:10222000AA1FBB1F880F991FAA1FBB1F9C01AD01CE
:1022300080E092E1AAE7B0E0BC01CD010E94DD118F
:10224000DA01C90101979A838983E0E4F0E089818A
:102250009A81892F99278083E9E2F0E08981808340
:102260000F900F900F900F90CF91DF910895DF9313
:10227000CF930F92CDB7DEB78983EBE2F0E0808198
:10228000882F90E0807290700097B9F3ECE2F0E054
:10229000898180830F90CF91DF910895DF93CF9351
:1022A000CDB7DEB7EBE2F0E080818823DCF7ECE22B
:1022B000F0E08081CF91DF910895DF93CF9300D03C
:1022C0000F92CDB7DEB79B838A8319820EC08981B6
:1022D000282F30E08A819B81FC01E20FF31F80816F
:1022E0000E94371189818F5F89838981282F30E08F
:1022F0008A819B81FC01E20FF31F8081882339F7DB
:102300000F900F900F90CF91DF9108950F931F932F
:10231000DF93CF9300D00F92CDB7DEB79B838A8334
:1023200019828981282F30E08A819B818C01020FDC
:10233000131F0E944E11F80180830FC089818F5FA7
:1023400089838981282F30E08A819B818C01020F4B
:10235000131F0E944E11F80180838981282F30E0DD
:102360008A819B81FC01E20FF31F8081833231F768
:102370008981282F30E08A819B81FC01E20FF31FC5
:1023800010820F900F900F90CF91DF911F910F91BE
:102390000895AA1BBB1B51E107C0AA1FBB1FA617AC
:1023A000B70710F0A61BB70B881F991F5A95A9F7FE
:1023B00080959095BC01CD010895A1E21A2EAA1B2B
:1023C000BB1BFD010DC0AA1FBB1FEE1FFF1FA217E5
:1023D000B307E407F50720F0A21BB30BE40BF50BE2
:1023E000661F771F881F991F1A9469F7609570956B
:1023F000809590959B01AC01BD01CF0108952F926E
:102400003F924F925F926F927F928F929F92AF9284
:10241000BF92CF92DF92EF92FF920F931F93CF93D1
:10242000DF93CDB7DEB7CA1BDB0B0FB6F894DEBF68
:102430000FBECDBF09942A88398848885F846E848E
:102440007D848C849B84AA84B984C884DF80EE80D8
:10245000FD800C811B81AA81B981CE0FD11D0FB6E1
:10246000F894DEBF0FBECDBFED010895F894FFCF05
:1024700000000000000000000000841E01050103B0
:0A24800000008025000002000100AA
:00000001FF
