:100000000C942A000C943F000C943F000C943F0089
:100010000C943F000C943F000C943F000C943F0064
:100020000C943F000C943F000C943F000C943F0054
:100030000C943F000C943F000C943F000C943F0044
:100040000C943F000C943F000C943F000C943F0034
:100050000C943F0011241FBECFE5D8E0DEBFCDBF1A
:1000600011E0A0E6B0E0EEE5FFE202C005900D92DF
:10007000AE39B107D9F70E9453160C94AD170C9402
:100080000000EF92FF920F93DF93CF93CDB7DEB7CF
:1000900060970FB6F894DEBF0FBECDBFA82F002328
:1000A00009F461C07E010894E11CF11C88E0F701AD
:1000B00011928A95E9F729833A834B835C836D8398
:1000C0007E83AF83988780E2801BE82FFF27E7FDC0
:1000D000F09549815A816B817C81181684F01986CC
:1000E0001A861B861C86882799278E1B9F0B04C0A7
:1000F000440F551F661F771F8A95D2F728C0202FFF
:10010000332727FD3095DB01CA01022E04C0880F7A
:10011000991FAA1FBB1F0A94D2F789879A87AB87BA
:10012000BC8704C07695679557954795EA95D2F7B1
:100130008D819E81AF81B88504C0880F991FAA1F49
:10014000BB1F2A95D2F7482B592B6A2B7B2B4D8747
:100150005E876F87788B29853A854B855C856D85B1
:100160007E85AF8598898A2F60960FB6F894DEBF9A
:100170000FBECDBFCF91DF910F91FF90EF9008950B
:10018000EF92FF920F931F937B018C0120E030E0F0
:1001900040E05FE40E94480588238CF0C801B70165
:1001A00020E030E040E05FE40E9414030E94060675
:1001B0009B01AC01205030404040504806C0C8016F
:1001C000B7010E9406069B01AC01B901CA011F914B
:1001D0000F91FF90EF900895A2E0B0E0E2EFF0E021
:1001E0000C944517122FB32EA42E952E862E372E43
:1001F000282E9A83C22ED32EE42EF52EA701960127
:1002000060E070E080E090E02117A1F43B1591F4EC
:100210004A1581F4591571F4681561F4731551F498
:10022000821541F4AA819A1729F4C701B6010E94E8
:100230005A06AAC0212F3B2D4A2D592D682D732D0A
:10024000822D9A8100E20E94D306C901DA01803032
:10025000E0E09E07E1E0AE07E0E0BE0780F48F3FFC
:100260009105A105B10531F028F028E030E040E02B
:1002700050E016C020E030E040E050E011C0803097
:10028000F0E09F07F0E0AF07F1E0BF0728F028E1BA
:1002900030E040E050E004C020E130E040E050E0D9
:1002A000022E04C0B695A795979587950A94D2F724
:1002B000FC01E356FF4F808129013A01480E511C91
:1002C000611C711C4982212F3B2D4A2D592D682D0F
:1002D000732D822D9A81042D0E94D306C901DA0163
:1002E0004C015D0180E290E08419950904C0CC0CBA
:1002F000DD1CEE1CFF1C8A95D2F7C114D104E10469
:10030000F10441F081E090E0A0E0B0E0882A992A71
:10031000AA2ABB2A90E2491651046104710459F4D7
:100320000F2EF0E0EF2EF0E0FF2EF0E80F2FFFE4AD
:100330001F2FF02D21C0AFE14A1651046104710452
:1003400059F40F2EF0E0EF2EF0E0FF2EF0E00F2F2B
:10035000FFE41F2FF02D10C061E070E080E090E01E
:10036000098004C0660F771F881F991F0A94D2F76F
:100370000E94A8057B018C01C501B4010E945A06A8
:10038000A80197010E9472032296E2E10C94611782
:10039000A0E0B0E0EEECF1E00C944517DC012B019D
:1003A000FA019C91923008F439C1EB0188818230C6
:1003B00008F433C1943069F4843009F02FC11196E8
:1003C0009C9111978981981709F428C1A5E9B0E09B
:1003D00025C1843009F421C18230A9F4923009F09A
:1003E0001DC19A01AD0188E0EA010990AE01E90161
:1003F00009929E018150C1F7E201898111969C9179
:100400008923818308C1923009F407C112962D9087
:100410003C901397EB018A819B811496AD90BD901F
:10042000CD90DC901797EC80FD800E811F819101AB
:10043000281B390BB90137FF04C066277727621BD9
:10044000730B603271050CF061C0121613066CF567
:1004500037014801062E04C09694879477946794D8
:100460000A94D2F721E030E040E050E004C0220FCF
:10047000331F441F551F6A95D2F72150304040402A
:1004800050402E213F2140235123211531054105A4
:10049000510521F021E030E040E050E079018A018F
:1004A000E628F728082919293CC0232BD1F1260E6C
:1004B000371E35014601062E04C096948794779422
:1004C00067940A94D2F721E030E040E050E004C0A5
:1004D000220F331F441F551F6A95D2F72150304019
:1004E000404050402A213B214C215D2121153105FE
:1004F0004105510521F021E030E040E050E0590194
:100500006A01A628B728C828D9280BC082159305E8
:100510002CF01C01AA24BB24650103C0EE24FF2497
:10052000870111969C91D20111968C91981709F42C
:1005300045C0992339F0A80197012A193B094C09B4
:100540005D0906C0A60195012E193F09400B510B0C
:1005500057FD08C01182338222822483358346836B
:1005600057831DC081E081833382228288279927A7
:10057000DC01821B930BA40BB50B84839583A683AC
:10058000B7830DC0220F331F441F551F24833583AB
:100590004683578382819381019793838283248149
:1005A000358146815781DA01C9010197A109B10955
:1005B0008F5F9F4FAF4FBF4328F30BC091833382B0
:1005C0002282EA0CFB1C0C1D1D1DE482F5820683B1
:1005D000178383E08083248135814681578157FFCB
:1005E0001AC0C901AA2797FDA095BA2F81709070F3
:1005F000A070B0705695479537952795822B932B11
:10060000A42BB52B84839583A683B78382819381A2
:10061000019693838283DF0101C0D201CD01CDB762
:10062000DEB7E2E10C946117A0E2B0E0EAE1F3E0AA
:100630000C94511769837A838B839C832D833E832B
:100640004F835887E9E0EE2EF12CEC0EFD1ECE0113
:100650000196B7010E9476088E010F5E1F4FCE01F2
:100660000596B8010E9476088A8991E089278A8BCD
:10067000C701B801AE01475E5F4F0E94C8010E94EA
:10068000A107A096E6E00C946D17A0E2B0E0EBE4C1
:10069000F3E00C94511769837A838B839C832D83B9
:1006A0003E834F835887F9E0EF2EF12CEC0EFD1EB0
:1006B000CE010196B7010E9476088E010F5E1F4F92
:1006C000CE010596B8010E947608C701B801AE01B7
:1006D000475E5F4F0E94C8010E94A107A096E6E016
:1006E0000C946D17A0E2B0E0E8E7F3E00C94451736
:1006F00069837A838B839C832D833E834F835887C2
:10070000CE010196BE01675F7F4F0E947608CE0141
:100710000596BE016F5E7F4F0E94760899859230E4
:1007200088F089898230C8F0943019F4823051F40D
:1007300004C0843029F4923081F485E990E0C6C089
:10074000923049F420E09A858A89981321E02A871B
:10075000CE010996BBC0823049F420E09A858A898F
:10076000981321E02A8BCE014196B0C02D843E849F
:100770004F8458886D887E888F88988CEE24FF245B
:100780008701AA24BB24650140E050E060E070E0EE
:10079000E0E0F0E0C10181709070892BE9F0E60C97
:1007A000F71C081D191D9A01AB012A0D3B1D4C1D9C
:1007B0005D1D80E090E0A0E0B0E0E614F7040805DD
:1007C000190520F481E090E0A0E0B0E0BA01A901B1
:1007D000480F591F6A1F7B1FAA0CBB1CCC1CDD1CB9
:1007E00097FE08C081E090E0A0E0B0E0A82AB92A16
:1007F000CA2ADB2A3196E032F10549F0660C771CF3
:10080000881C991C5694479437942794C3CFFA8533
:10081000EA892B893C898B859C85280F391F2E5F9F
:100820003F4F17C0CA0181709070892B61F01695F7
:100830000795F794E79480E090E0A0E0B0E8E82A1C
:10084000F92A0A2B1B2B76956795579547952F5FAD
:100850003F4F77FDE7CF0CC0440F551F661F771F32
:1008600017FD4160EE0CFF1C001F111F215030408E
:10087000403090E0590790E0690790E4790760F311
:100880002B8F3C8FDB01CA018F779070A070B07006
:1008900080349105A105B10561F447FD0AC0E1145A
:1008A000F1040105110529F0405C5F4F6F4F7F4F48
:1008B00040781A8EFE1711F081E08A8F4D8F5E8F7F
:1008C0006F8F78A383E0898FCE0149960E94A1079C
:1008D000A096E2E10C946117A8E1B0E0E2E7F4E051
:1008E0000C944D1769837A838B839C832D833E837D
:1008F0004F835887B9E0EB2EF12CEC0EFD1ECE0194
:100900000196B7010E9476088E010F5E1F4FCE013F
:100910000596B8010E9476082985223008F47EC029
:100920003989323010F4B8017CC08A859A898927C8
:100930008A87243011F0223031F4231709F06EC079
:1009400065E970E06EC0343039F41D861E861F865E
:10095000188A1C861B8604C0323021F484E0898703
:10096000B7015FC02B853C858B899C89281B390B7F
:100970003C872B87ED84FE840F851889AD88BE885F
:10098000CF88D88CEA14FB040C051D0540F4EE0C4E
:10099000FF1C001F111F215030403C872B8720E097
:1009A00030E040E050E080E090E0A0E0B0E460E0C3
:1009B00070E0EA14FB040C051D0540F0282B392BD0
:1009C0004A2B5B2BEA18FB080C091D09B695A79565
:1009D00097958795EE0CFF1C001F111F6F5F7F4FCF
:1009E0006F31710531F7DA01C9018F779070A0700E
:1009F000B07080349105A105B10561F427FD0AC0EE
:100A0000E114F1040105110529F0205C3F4F4F4F1F
:100A10005F4F20782D873E874F87588BBE01675FD9
:100A20007F4FCB010E94A1076896EAE00C946917FA
:100A3000A8E1B0E0EEE1F5E00C94511769837A8308
:100A40008B839C832D833E834F83588789E0E82ED8
:100A5000F12CEC0EFD1ECE010196B7010E94760826
:100A60008E010F5E1F4FCE010596B8010E947608D9
:100A70008985823040F08989823028F0C701B80129
:100A80000E94EE0801C08FEF6896E6E00C946D17A7
:100A9000A8E1B0E0EEE4F5E00C94511769837A83A5
:100AA0008B839C832D833E834F83588789E0E82E78
:100AB000F12CEC0EFD1ECE010196B7010E947608C6
:100AC0008E010F5E1F4FCE010596B8010E94760879
:100AD0008985823040F08989823028F0C701B801C9
:100AE0000E94EE0801C08FEF6896E6E00C946D1747
:100AF000A8E1B0E0EEE7F5E00C94511769837A8342
:100B00008B839C832D833E834F83588789E0E82E17
:100B1000F12CEC0EFD1ECE010196B7010E94760865
:100B20008E010F5E1F4FCE010596B8010E94760818
:100B30008985823040F08989823028F0C701B80168
:100B40000E94EE0801C081E06896E6E00C946D1703
:100B5000A8E0B0E0EEEAF5E00C944E179B01AC0182
:100B600083E08983DA01C9018827B7FD8395992736
:100B7000AA27BB27B82E211531054105510519F4C7
:100B800082E089833AC08823A9F0203080E03807CA
:100B900080E0480780E8580729F460E070E080E0D2
:100BA0009FEC30C0EE24FF248701E21AF30A040B05
:100BB000150B02C079018A018EE1C82ED12CDC828E
:100BC000CB82ED82FE820F831887C801B7010E9495
:100BD000520701971816190684F4082E04C0EE0C6B
:100BE000FF1C001F111F0A94D2F7ED82FE820F83B3
:100BF0001887C81AD90ADC82CB82BA82CE01019644
:100C00000E94A1072896E9E00C946A17ACE0B0E0D6
:100C1000ECE0F6E00C94551769837A838B839C8310
:100C2000CE010196BE016B5F7F4F0E9476088D81D9
:100C3000823061F1823050F1843021F48E8188233A
:100C400051F12EC02F81388537FD20C06E812F31A4
:100C500031051CF06623F9F023C08EE190E0821B81
:100C6000930B29853A854B855C8504C0569547953D
:100C7000379527958A95D2F76623B1F05095409520
:100C8000309521953F4F4F4F5F4F0EC020E030E031
:100C900040E050E009C02FEF3FEF4FEF5FE704C0A7
:100CA00020E030E040E050E8B901CA012C96E2E0D3
:100CB0000C947117A8E0B0E0E0E6F6E00C944D1754
:100CC0007B018C01611571058105910519F482E0A4
:100CD000898360C083E089838EE1C82ED12CDC82B9
:100CE000CB82ED82FE820F831887C801B7010E9474
:100CF0005207FC013197F7FF3BC0222733272E1BF9
:100D00003F0B57016801022E04C0D694C794B794D4
:100D1000A7940A94D2F740E050E060E070E081E0F0
:100D200090E0A0E0B0E004C0880F991FAA1FBB1F8D
:100D30002A95D2F70197A109B1098E219F21A023FD
:100D4000B1230097A105B10521F041E050E060E03A
:100D500070E04A295B296C297D294D835E836F836E
:100D600078878EE190E08E1B9F0B9C838B8312C053
:100D7000309781F00E2E04C0EE0CFF1C001F111FD7
:100D80000A94D2F7ED82FE820F831887CE1ADF0A0B
:100D9000DC82CB821A82CE0101960E94A10728969E
:100DA000EAE00C946917EF92FF920F93DF93CF93D1
:100DB000CDB7DEB760970FB6F894DEBF0FBECDBFDC
:100DC000A82F002309F461C07E010894E11CF11CE6
:100DD00088E0F70111928A95E9F729833A834B83DA
:100DE0005C836D837E83AF83988780E2801BE82FCE
:100DF000FF27E7FDF0954D815E816F81788518169C
:100E000084F01D861E861F86188A882799278E1BC8
:100E10009F0B04C076956795579547958A95D2F7AD
:100E200028C0202F332727FD3095DB01CA01022E71
:100E300004C0B695A795979587950A94D2F78D87A4
:100E40009E87AF87B88B04C0440F551F661F771F5E
:100E5000EA95D2F789819A81AB81BC8104C0B695AD
:100E6000A795979587952A95D2F7482B592B6A2BEA
:100E70007B2B49875A876B877C8729853A854B85E9
:100E80005C856D857E85AF8598898A2F60960FB6C3
:100E9000F894DEBF0FBECDBFCF91DF910F91FF90D1
:100EA000EF900895EF92FF920F931F937B018C01B7
:100EB00080E0E81680E0F80681E0080780E0180787
:100EC00088F48FEFE816F1040105110531F028F0E0
:100ED00088E090E0A0E0B0E017C080E090E0A0E003
:100EE000B0E012C080E0E81680E0F80680E0080775
:100EF00081E0180728F088E190E0A0E0B0E004C0AD
:100F000080E190E0A0E0B0E020E230E040E050E09E
:100F1000281B390B4A0B5B0B04C016950795F794F9
:100F2000E7948A95D2F7F701E356FF4F8081281B9B
:100F3000310941095109C9011F910F91FF90EF90AB
:100F40000895DF92EF92FF920F931F93FC01E480CC
:100F5000F58006811781D1808081823048F480E05D
:100F600090E0A0E1B0E0E82AF92A0A2B1B2BA5C0EB
:100F7000843009F49FC0823021F4EE24FF248701DD
:100F800005C0E114F1040105110519F4E0E0F0E0F9
:100F900096C0628173819FEF623879070CF05BC065
:100FA00022E83FEF261B370B2A3131052CF020E0D9
:100FB00030E040E050E02AC0B801A701022E04C092
:100FC00076956795579547950A94D2F781E090E01A
:100FD000A0E0B0E004C0880F991FAA1FBB1F2A958C
:100FE000D2F70197A109B1098E219F21A023B12336
:100FF0000097A105B10521F081E090E0A0E0B0E00C
:101000009A01AB01282B392B4A2B5B2BDA01C90142
:101010008F779070A070B07080349105A105B105F4
:1010200039F427FF09C0205C3F4F4F4F5F4F04C08A
:10103000215C3F4F4F4F5F4FE0E0F0E02030A0E0F9
:101040003A07A0E04A07A0E45A0710F0E1E0F0E018
:1010500079018A0127C06038710564F5FB01E15808
:10106000FF4FD801C7018F779070A070B0708034A7
:101070009105A105B10539F4E7FE0DC080E490E0CB
:10108000A0E0B0E004C08FE390E0A0E0B0E0E80EA4
:10109000F91E0A1F1B1F17FF05C016950795F79429
:1010A000E794319687E016950795F794E7948A952B
:1010B000D1F705C0EE24FF248701EFEFF0E06E2F9B
:1010C000679566276795902F9F77D794DD24D794EF
:1010D0008E2F8695492F462B582F5D29B701CA01BF
:1010E0001F910F91FF90EF90DF900895FC01DB01BD
:1010F000408151812281622F6F7770E0221F222769
:10110000221F9381892F880F822B282F30E0991F6F
:101110009927991F11969C93119721153105A9F5CF
:10112000411551056105710511F482E037C082E86F
:101130009FEF13969C938E9312979A01AB0167E0F1
:10114000220F331F441F551F6A95D1F783E08C93FC
:101150000DC0220F331F441F551F12968D919C9175
:101160001397019713969C938E931297203080E0EB
:10117000380780E0480780E4580758F314962D9309
:101180003D934D935C93179708952F3F310579F464
:10119000411551056105710519F484E08C9308959A
:1011A00064FF03C081E08C9312C01C9210C02F57C3
:1011B000304013963C932E93129783E08C9387E0F4
:1011C000440F551F661F771F8A95D1F770641496D8
:1011D0004D935D936D937C93179708951F93DC0156
:1011E000FB019C91923008F447C08081823008F462
:1011F00043C0943051F411961C91843099F581814B
:10120000682F70E0611B71093FC0843021F092307B
:1012100031F48230B9F18181882389F12DC0119692
:101220001C9111978230F1F081811817D9F4129630
:101230002D913C911397828193818217930794F0AB
:1012400028173907BCF014968D919D910D90BC9193
:10125000A02D2481358146815781281739074A07F7
:101260005B0718F4112341F00AC082179307A40703
:10127000B50740F4112319F061E070E005C06FEF8D
:101280007FEF02C060E070E0CB011F910895DF9313
:10129000CF93CDB7DEB7E7E2F0E080EC8083E6E203
:1012A000F0E087E88083CF91DF910895DF93CF93BB
:1012B0000F92CDB7DEB78983898187708983A7E2D2
:1012C000B0E0E7E2F0E08081807E8C93A7E2B0E0BE
:1012D000E7E2F0E090818981892B8C93A6E2B0E06F
:1012E000E6E2F0E0808180648C93E6E2F0E08081C9
:1012F000882F90E0807190700097B9F3A6E2B0E07B
:10130000E6E2F0E0808180618C93E4E2F0E08081AD
:1013100091810F90CF91DF910895DF93CF93CDB757
:10132000DEB783E063E041E00E943B0A83E063E0D4
:1013300040E00E94260BCF91DF910895DF93CF9379
:10134000CDB7DEB783E063E041E00E94260BCF918A
:10135000DF910895DF93CF93CDB7DEB783E063E0ED
:1013600040E00E94260BCF91DF910895DF93CF9349
:10137000CDB7DEB781E060E041E00E943B0A81E04A
:1013800061E041E00E943B0A81E063E041E00E94AD
:101390003B0A81E060E040E00E94260B81E061E0D2
:1013A00040E00E94260BCF91DF910895DF93CF9309
:1013B00000D000D0CDB7DEB789836A838A810E94CE
:1013C000EA158981282F30E03C832B838B819C8117
:1013D00081309105A1F02B813C8122303105D1F083
:1013E0008B819C81009701F581E060E040E00E94E4
:1013F000260B81E061E040E00E94260B15C081E0F1
:1014000060E041E00E94260B81E061E040E00E9444
:10141000260B0AC081E060E040E00E94260B81E0DC
:1014200061E041E00E94260B0F900F900F900F900B
:10143000CF91DF910895DF93CF93CDB7DEB783E0EF
:1014400062E040E00E943B0ACF91DF910895DF9374
:10145000CF930F92CDB7DEB783E062E00E94110C0C
:10146000882319F081E0898301C0198289810F9056
:10147000CF91DF910895DF93CF9300D000D00F92EA
:10148000CDB7DEB789836A834B838A81883008F0C1
:10149000D5C08981843008F0D1C08981282F30E0FF
:1014A0003D832C838C819D818130910509F443C05B
:1014B0002C813D81223031052CF48C819D81009757
:1014C00071F0BCC02C813D812230310509F45FC030
:1014D0008C819D818330910509F485C0AFC08B81DB
:1014E0008130A1F4AAE3B0E0EAE3F0E08081482F84
:1014F0008A81282F30E081E090E0022E02C0880F20
:10150000991F0A94E2F7842B8C9398C0AAE3B0E069
:10151000EAE3F0E08081482F8A81282F30E081E0E3
:1015200090E0022E02C0880F991F0A94E2F780957E
:1015300084238C9383C08B818130A1F4A7E3B0E036
:10154000E7E3F0E08081482F8A81282F30E081E0B6
:1015500090E0022E02C0880F991F0A94E2F7842BB4
:101560008C936CC0A7E3B0E0E7E3F0E08081482F04
:101570008A81282F30E081E090E0022E02C0880F9F
:10158000991F0A94E2F7809584238C9357C08B812E
:101590008130A1F4A4E3B0E0E4E3F0E08081482FDF
:1015A0008A81282F30E081E090E0022E02C0880F6F
:1015B000991F0A94E2F7842B8C9340C0A4E3B0E017
:1015C000E4E3F0E08081482F8A81282F30E081E039
:1015D00090E0022E02C0880F991F0A94E2F78095CE
:1015E00084238C932BC08B818130A1F4A1E3B0E0E4
:1015F000E1E3F0E08081482F8A81282F30E081E00C
:1016000090E0022E02C0880F991F0A94E2F7842B03
:101610008C9314C0A1E3B0E0E1E3F0E08081482FB7
:101620008A81282F30E081E090E0022E02C0880FEE
:10163000991F0A94E2F7809584238C930F900F9062
:101640000F900F900F90CF91DF910895DF93CF937C
:1016500000D000D00F92CDB7DEB789836A834B8369
:101660008A81883008F0D5C08981843008F0D1C0E3
:101670008981282F30E03D832C838C819D818130AE
:10168000910509F443C02C813D81223031052CF4B1
:101690008C819D81009771F0BCC02C813D812230EE
:1016A000310509F45FC08C819D818330910509F477
:1016B00085C0AFC08B818130A1F4ABE3B0E0EBE338
:1016C000F0E08081482F8A81282F30E081E090E08F
:1016D000022E02C0880F991F0A94E2F7842B8C9384
:1016E00098C0ABE3B0E0EBE3F0E08081482F8A8163
:1016F000282F30E081E090E0022E02C0880F991F71
:101700000A94E2F7809584238C9383C08B81813087
:10171000A1F4A8E3B0E0E8E3F0E08081482F8A81FB
:10172000282F30E081E090E0022E02C0880F991F40
:101730000A94E2F7842B8C936CC0A8E3B0E0E8E352
:10174000F0E08081482F8A81282F30E081E090E00E
:10175000022E02C0880F991F0A94E2F78095842315
:101760008C9357C08B818130A1F4A5E3B0E0E5E311
:10177000F0E08081482F8A81282F30E081E090E0DE
:10178000022E02C0880F991F0A94E2F7842B8C93D3
:1017900040C0A5E3B0E0E5E3F0E08081482F8A8116
:1017A000282F30E081E090E0022E02C0880F991FC0
:1017B0000A94E2F7809584238C932BC08B8181302F
:1017C000A1F4A2E3B0E0E2E3F0E08081482F8A8157
:1017D000282F30E081E090E0022E02C0880F991F90
:1017E0000A94E2F7842B8C9314C0A2E3B0E0E2E306
:1017F000F0E08081482F8A81282F30E081E090E05E
:10180000022E02C0880F991F0A94E2F78095842364
:101810008C930F900F900F900F900F90CF91DF91BE
:101820000895DF93CF9300D000D00F92CDB7DEB7ED
:101830008A836B8319828B81883008F084C08A8107
:10184000843008F080C08A81282F30E03D832C83CB
:101850004C815D814130510579F18C819D818230CF
:10186000910534F42C813D812115310569F06BC05F
:101870004C815D8142305105B9F18C819D8183306D
:10188000910509F449C05FC0E9E3F0E08081282FA9
:1018900030E08B81882F90E0A90102C055954795D3
:1018A0008A95E2F7CA0181709070882319F081E06F
:1018B000898349C0198247C0E6E3F0E08081282F80
:1018C00030E08B81882F90E0A90102C055954795A3
:1018D0008A95E2F7CA0181709070882319F081E03F
:1018E000898331C019822FC0E3E3F0E08081282F83
:1018F00030E08B81882F90E0A90102C05595479573
:101900008A95E2F7CA0181709070882319F081E00E
:10191000898319C0198217C0E0E3F0E08081282F85
:1019200030E08B81882F90E0A90102C05595479542
:101930008A95E2F7CA0181709070882319F081E0DE
:10194000898301C0198289810F900F900F900F90A9
:101950000F90CF91DF910895DF93CF9300D000D007
:10196000CDB7DEB789836A838981843090F5898118
:10197000282F30E03C832B838B819C818130910523
:10198000D1F02B813C81223031052CF48B819C815C
:10199000009761F01EC02B813C812230310581F01F
:1019A0008B819C818330910581F013C0EAE3F0E0E4
:1019B0008A8180830EC0E7E3F0E08A81808309C0DA
:1019C000E4E3F0E08A81808304C0E1E3F0E08A810F
:1019D00080830F900F900F900F90CF91DF9108951B
:1019E000DF93CF9300D000D0CDB7DEB789836A8371
:1019F0008981843090F58981282F30E03C832B83C6
:101A00008B819C8181309105D1F02B813C812230EA
:101A100031052CF48B819C81009761F01EC02B81D5
:101A20003C812230310581F08B819C81833091058E
:101A300081F013C0EBE3F0E08A8180830EC0E8E31D
:101A4000F0E08A81808309C0E5E3F0E08A81808349
:101A500004C0E2E3F0E08A8180830F900F900F9042
:101A60000F90CF91DF910895DF93CF9300D000D0F6
:101A7000CDB7DEB78A8319828A81843090F58A8156
:101A8000282F30E03C832B838B819C818130910512
:101A9000D1F02B813C81223031052CF48B819C814B
:101AA000009761F01EC02B813C812230310581F00E
:101AB0008B819C818330910581F013C0E9E3F0E0D4
:101AC000808189830EC0E6E3F0E08081898309C0CC
:101AD000E3E3F0E08081898304C0E0E3F0E080810B
:101AE000898389810F900F900F900F90CF91DF9194
:101AF0000895DF93CF93CDB7DEB72E970FB6F89446
:101B0000DEBF0FBECDBF83E060E041E00E943B0A34
:101B100083E061E041E00E943B0A80E090E0A0EABF
:101B2000B1E48B879C87AD87BE876B857C858D856F
:101B30009E8520E030E04AE755E40E947203DC0114
:101B4000CB018F839887A987BA876F81788589852C
:101B50009A8520E030E040E85FE30E947805882322
:101B60002CF481E090E09E838D833FC06F81788567
:101B700089859A8520E03FEF4FE757E40E941805DA
:101B800018164CF56B857C858D859E8520E030E0B0
:101B900040E251E40E947203DC01CB01BC01CD01A3
:101BA0000E94C000DC01CB019E838D830FC080E9C1
:101BB00091E09C838B838B819C810197F1F79C83BF
:101BC0008B838D819E8101979E838D838D819E81E4
:101BD000009769F714C06F81788589859A850E947E
:101BE000C000DC01CB019E838D838D819E819A8311
:101BF000898389819A810197F1F79A83898382E0A9
:101C00006FEF0E94AC0C88E30E94150E8CE00E94DE
:101C1000150E81E00E94150E2E960FB6F894DEBFC9
:101C20000FBECDBFCF91DF910895DF93CF93CDB796
:101C3000DEB7E9970FB6F894DEBF0FBECDBF89AF10
:101C400083E060E040E00E94260B80E090E0A0E8A6
:101C5000BFE38DAB9EABAFABB8AF6DA97EA98FA92B
:101C600098AD20E030E04AE755E40E947203DC01C1
:101C7000CB0189AB9AABABABBCAB69A97AA98BA9F9
:101C80009CA920E030E040E85FE30E9478058823CB
:101C90002CF481E090E098AB8FA73FC069A97AA9A6
:101CA0008BA99CA920E03FEF4FE757E40E9418055D
:101CB00018164CF56DA97EA98FA998AD20E030E0EB
:101CC00040E251E40E947203DC01CB01BC01CD0172
:101CD0000E94C000DC01CB0198AB8FA70FC080E948
:101CE00091E09EA78DA78DA59EA50197F1F79EA7D0
:101CF0008DA78FA598A9019798AB8FA78FA598A9B5
:101D0000009769F714C069A97AA98BA99CA90E94B8
:101D1000C000DC01CB0198AB8FA78FA598A99CA729
:101D20008BA78BA59CA50197F1F79CA78BA783E0B8
:101D300061E041E00E94260B80E090E0A0E8BFE374
:101D40008FA398A7A9A7BAA76FA178A589A59AA5D7
:101D500020E030E04AE755E40E947203DC01CB0149
:101D60008BA39CA3ADA3BEA36BA17CA18DA19EA1BF
:101D700020E030E040E85FE30E94780588232CF4FF
:101D800081E090E09AA389A33FC06BA17CA18DA1C3
:101D90009EA120E03FEF4FE757E40E941805181678
:101DA0004CF56FA178A589A59AA520E030E040E226
:101DB00051E40E947203DC01CB01BC01CD010E9401
:101DC000C000DC01CB019AA389A30FC080E991E098
:101DD00098A38F8F8F8D98A10197F1F798A38F8F7C
:101DE00089A19AA101979AA389A389A19AA1009791
:101DF00069F714C06BA17CA18DA19EA10E94C000B7
:101E0000DC01CB019AA389A389A19AA19E8F8D8F12
:101E10008D8D9E8D0197F1F79E8F8D8F82E069AD3C
:101E20000E94F00C80E090E0A0E8BFE3898F9A8FD9
:101E3000AB8FBC8F698D7A8D8B8D9C8D20E030E0CF
:101E40004AE755E40E947203DC01CB018D8B9E8B27
:101E5000AF8BB88F6D897E898F89988D20E030E0B7
:101E600040E85FE30E94780588232CF481E090E04D
:101E70009C8B8B8B3FC06D897E898F89988D20E0EC
:101E80003FEF4FE757E40E94180518164CF5698D8F
:101E90007A8D8B8D9C8D20E030E040E251E40E94F1
:101EA0007203DC01CB01BC01CD010E94C000DC014A
:101EB000CB019C8B8B8B0FC080E991E09A8B898B37
:101EC00089899A890197F1F79A8B898B8B899C89EB
:101ED00001979C8B8B8B8B899C89009769F714C029
:101EE0006D897E898F89988D0E94C000DC01CB01AD
:101EF0009C8B8B8B8B899C89988B8F878F859889FE
:101F00000197F1F7988B8F8783E061E040E00E94B2
:101F1000260B80E090E0A0E8BFE38B879C87AD872D
:101F2000BE876B857C858D859E8520E030E04AE705
:101F300055E40E947203DC01CB018F839887A98747
:101F4000BA876F81788589859A8520E030E040E8FE
:101F50005FE30E94780588232CF481E090E09E8363
:101F60008D833FC06F81788589859A8520E03FEF1A
:101F70004FE757E40E94180518164CF56B857C85D1
:101F80008D859E8520E030E040E251E40E9472039E
:101F9000DC01CB01BC01CD010E94C000DC01CB0102
:101FA0009E838D830FC080E991E09C838B838B811E
:101FB0009C810197F1F79C838B838D819E81019792
:101FC0009E838D838D819E81009769F714C06F81F8
:101FD000788589859A850E94C000DC01CB019E83AB
:101FE0008D838D819E819A83898389819A810197CE
:101FF000F1F79A838983E9960FB6F894DEBF0FBE96
:10200000CDBFCF91DF910895DF93CF93CDB7DEB7EA
:10201000E9970FB6F894DEBF0FBECDBF89AF83E05E
:1020200060E041E00E94260B80E090E0A0E8BFE382
:102030008DAB9EABAFABB8AF6DA97EA98FA998ADA4
:1020400020E030E04AE755E40E947203DC01CB0156
:1020500089AB9AABABABBCAB69A97AA98BA99CA99C
:1020600020E030E040E85FE30E94780588232CF40C
:1020700081E090E098AB8FA73FC069A97AA98BA9AE
:102080009CA920E03FEF4FE757E40E94180518167F
:102090004CF56DA97EA98FA998AD20E030E040E213
:1020A00051E40E947203DC01CB01BC01CD010E940E
:1020B000C000DC01CB0198AB8FA70FC080E991E095
:1020C0009EA78DA78DA59EA50197F1F79EA78DA729
:1020D0008FA598A9019798AB8FA78FA598A900976E
:1020E00069F714C069A97AA98BA99CA90E94C000AC
:1020F000DC01CB0198AB8FA78FA598A99CA78BA7D4
:102100008BA59CA50197F1F79CA78BA783E061E0C5
:1021100041E00E94260B80E090E0A0E8BFE38FA39F
:1021200098A7A9A7BAA76FA178A589A59AA520E025
:1021300030E04AE755E40E947203DC01CB018BA337
:102140009CA3ADA3BEA36BA17CA18DA19EA120E009
:1021500030E040E85FE30E94780588232CF481E0BA
:1021600090E09AA389A33FC06BA17CA18DA19EA101
:1021700020E03FEF4FE757E40E94180518164CF592
:102180006FA178A589A59AA520E030E040E251E44E
:102190000E947203DC01CB01BC01CD010E94C00092
:1021A000DC01CB019AA389A30FC080E991E098A339
:1021B0008F8F8F8D98A10197F1F798A38F8F89A1A9
:1021C0009AA101979AA389A389A19AA1009769F777
:1021D00014C06BA17CA18DA19EA10E94C000DC0156
:1021E000CB019AA389A389A19AA19E8F8D8F8D8DF2
:1021F0009E8D0197F1F79E8F8D8F82E069AD0E94D1
:10220000F00C80E090E0A0E8BFE3898F9A8FAB8F5D
:10221000BC8F698D7A8D8B8D9C8D20E030E04AE7F4
:1022200055E40E947203DC01CB018D8B9E8BAF8B3A
:10223000B88F6D897E898F89988D20E030E040E8E5
:102240005FE30E94780588232CF481E090E09C8B6A
:102250008B8B3FC06D897E898F89988D20E03FEF01
:102260004FE757E40E94180518164CF5698D7A8DD2
:102270008B8D9C8D20E030E040E251E40E9472039F
:10228000DC01CB01BC01CD010E94C000DC01CB010F
:102290009C8B8B8B0FC080E991E09A8B898B89890D
:1022A0009A890197F1F79A8B898B8B899C89019781
:1022B0009C8B8B8B8B899C89009769F714C06D89E7
:1022C0007E898F89988D0E94C000DC01CB019C8B98
:1022D0008B8B8B899C89988B8F878F8598890197A9
:1022E000F1F7988B8F8783E061E040E00E94260B36
:1022F00080E090E0A0E8BFE38B879C87AD87BE8736
:102300006B857C858D859E8520E030E04AE755E42D
:102310000E947203DC01CB018F839887A987BA875B
:102320006F81788589859A8520E030E040E85FE319
:102330000E94780588232CF481E090E09E838D83B1
:102340003FC06F81788589859A8520E03FEF4FE710
:1023500057E40E94180518164CF56B857C858D8511
:102360009E8520E030E040E251E40E947203DC01EF
:10237000CB01BC01CD010E94C000DC01CB019E83DA
:102380008D830FC080E991E09C838B838B819C813E
:102390000197F1F79C838B838D819E8101979E83AA
:1023A0008D838D819E81009769F714C06F81788538
:1023B00089859A850E94C000DC01CB019E838D83B4
:1023C0008D819E819A83898389819A810197F1F712
:1023D0009A838983E9960FB6F894DEBF0FBECDBF0E
:1023E000CF91DF910895DF93CF9300D00F92CDB7B7
:1023F000DEB79B838A8319820EC08981282F30E043
:102400008A819B81FC01E20FF31F80810E940410EE
:1024100089818F5F89838981282F30E08A819B8120
:10242000FC01E20FF31F8081882339F70F900F9092
:102430000F90CF91DF910895DF93CF9300D000D01C
:102440000F92CDB7DEB78A836B838A81282F30E065
:102450003D832C838C819D8181309105C1F02C813D
:102460003D81223031052CF48C819D81009761F0F3
:1024700019C02C813D812230310569F08C819D810C
:102480008330910561F00EC08B8189830BC08B81F5
:10249000805C898307C08B81805F898303C08B81C7
:1024A000805B8983898180680E94150E0F900F9050
:1024B0000F900F900F90CF91DF910895DF93CF93FE
:1024C00000D000D0CDB7DEB789836A835C834B83AD
:1024D00089816A810E941C128B819C810E94F31168
:1024E0000F900F900F900F90CF91DF910895DF9391
:1024F000CF93CDB7DEB762970FB6F894DEBF0FBEAD
:10250000CDBF9A8B898B89899A899E012F5F3F4F16
:10251000B9014AE050E00E947C17CE0101960E946A
:10252000F31162960FB6F894DEBF0FBECDBFCF9108
:10253000DF910895DF93CF93CDB7DEB781E00E949E
:10254000150ECF91DF910895AF92BF92CF92DF9297
:10255000EF92FF920F931F93DF93CF93CDB7DEB728
:10256000C255D0400FB6F894DEBF0FBECDBF0E945B
:1025700047091C821B821A82198280E00E94560938
:102580009A83898389819A819C0140E050E060E0D0
:1025900070E080E090E0A22EB32EC42ED52EE62E61
:1025A000F72E082F192F2A2D3B2D4C2D5D2D6E2D2A
:1025B0007F2D802F912F02E00E9441002D833E83CA
:1025C0004F83588769877A878B879C872D813E81C7
:1025D0004F81588569857A858B859C8502E00E94AC
:1025E00041002D873E874F87588B698B7A8B8B8B69
:1025F0009C8B8D819D85890F8D8B81E08D8F9D8931
:102600008D81981708F01D8E9E818E85980F9E8B68
:1026100091E09E8F8E899E81891708F01E8E8D8D88
:102620009E89890F8F8F81E088A39F8D8E8998174F
:1026300008F018A29E8D88A1982B9E8F9F8D9E8B4F
:102640008F819F85890F8F8B81E089A39F898F81DF
:10265000981708F019A29E8D8F89980F9AA391E080
:102660009BA38AA19F89891708F01BA289A19BA11E
:10267000892B89A38AA18F8B98858889980F988F39
:1026800091E09CA3888D9885891708F01CA289A1E8
:10269000988D890F8DA381E08EA39DA1888D9817B9
:1026A00008F01EA29CA18EA1982B9CA39DA1988F9F
:1026B00089859989890F898F81E08FA3998D898573
:1026C000981708F01FA29CA1898D980F98A791E0F8
:1026D00099A788A5998D891708F019A68FA199A5A2
:1026E000892B8FA388A5898F9A858A89980F9A8FBD
:1026F00091E09AA78A8D9A85891708F01AA68FA16A
:102700009A8D890F8BA781E08CA79BA58A8D98173E
:1027100008F01CA69AA58CA5982B9AA79BA59A8F22
:102720008B859B89890F8B8F81E08DA79B8D8B85F6
:10273000981708F01DA69AA58B8D980F9EA791E07B
:102740009FA78EA59B8D891708F01FA68DA59FA515
:10275000892B8DA78EA58B8F9C858C89980F9C8F3C
:102760008DA59C8D890F8C8F8D898D839E899E83ED
:102770008F898F83988D9887898D89879A8D9A877D
:102780008B8D8B879C8D9C872D813E814F815885B9
:1027900069857A858B859C8502E00E94410028AB83
:1027A00039AB4AAB5BAB6CAB7DAB8EAB9FAB8D817A
:1027B00098A9890F88AF81E021968FAF219798ADB6
:1027C0008D81981718F021961FAE21979E8189A9B7
:1027D000980F99AF91E022969FAF229789AD9E8185
:1027E000891718F022961FAE229721968FAD219758
:1027F00099AD890F23968FAF239781E024968FAFF1
:10280000249723969FAD239789AD981718F02496A7
:102810001FAE249722969FAD229724968FAD2497C2
:10282000982B22969FAF229723969FAD239799AF1F
:102830008F819AA9890F8AAF81E025968FAF25975E
:102840009AAD8F81981718F025961FAE259722967E
:102850009FAD22978AAD980F26969FAF269791E05D
:1028600027969FAF279726968FAD26979AAD891703
:1028700018F027961FAE279725968FAD2597279698
:102880009FAD2797892B25968FAF259726968FADDD
:1028900026978AAF98858BA9980F9BAF91E02896D1
:1028A0009FAF28978BAD9885891718F028961FAE93
:1028B000289725968FAD25979BAD890F29968FAFC9
:1028C000299781E02A968FAF2A9729969FAD29975D
:1028D0008BAD981718F02A961FAE2A9728969FADB1
:1028E00028972A968FAD2A97982B28969FAF2897DE
:1028F00029969FAD29979BAF89859CA9890F8CAF9D
:1029000081E02B968FAF2B979CAD8985981718F097
:102910002B961FAE2B9728969FAD28978CAD980FBE
:102920002C969FAF2C9791E02D969FAF2D972C96CC
:102930008FAD2C979CAD891718F02D961FAE2D9753
:102940002B968FAD2B972D969FAD2D97892B2B9680
:102950008FAF2B972C968FAD2C978CAF9A858DA926
:10296000980F9DAF91E02E969FAF2E978DAD9A85D3
:10297000891718F02E961FAE2E972B968FAD2B979A
:102980009DAD890F2F968FAF2F9781E060968FAF07
:1029900060972F969FAD2F978DAD981718F0609682
:1029A0001FAE60972E969FAD2E9760968FAD609765
:1029B000982B2E969FAF2E972F969FAD2F979DAF5A
:1029C0008B859EA9890F8EAF81E061968FAF61974D
:1029D0009EAD8B85981718F061961FAE61972E9665
:1029E0009FAD2E978EAD980F62969FAF629791E044
:1029F00063969FAF639762968FAD62979EAD89177E
:102A000018F063961FAE639761968FAD61976396DA
:102A10009FAD6397892B61968FAF619762968FAD5B
:102A200062978EAF9C858FA9980F9FAF61968FADEF
:102A300061979FAD890F8FAFA8ACB9ACCAACDBACC6
:102A4000ECACFDAC0EAD1FAD2A2D3B2D4C2D5D2DFC
:102A50006E2D7F2D802F912F0E94EC00DC01CB0189
:102A6000BC01CD012AE037ED43E250E40E9472033D
:102A7000DC01CB01BC01CD0124E13EEA43E255E497
:102A80000E946C04DC01CB01BC01CD010E94C0009E
:102A9000DC01CB019C838B838B819C81CE5ADF4FE1
:102AA0000FB6F894DEBF0FBECDBFCF91DF911F915F
:102AB0000F91FF90EF90DF90CF90BF90AF9008956F
:102AC000DF93CF93CDB7DEB781E065E041E00E94B0
:102AD0003B0A81E066E041E00E943B0A81E067E05A
:102AE00041E00E943B0A81E065E040E00E94260B45
:102AF00081E066E040E00E94260B81E067E040E074
:102B00000E94260BCF91DF910895DF93CF930F9210
:102B1000CDB7DEB7898381E0698141E00E94260B51
:102B20000F90CF91DF910895DF93CF930F92CDB7A0
:102B3000DEB7898381E0698140E00E94260B0F9017
:102B4000CF91DF910895DF93CF9300D00F92CDB74F
:102B5000DEB70E9447091B821A82198281E00E9417
:102B600056099A83898389819A81CC01A0E0B0E0DB
:102B700026E930E040E050E0BC01CD010E94121790
:102B8000DC01CB01BC01CD010E945A06DC01CB0166
:102B9000BC01CD012AE037ED43E250E40E9472030C
:102BA000DC01CB01BC01CD0120E030ED4FEB54E462
:102BB0000E946C04DC01CB01BC01CD010E94C0006D
:102BC000DC01CB018B838B810F900F900F90CF9105
:102BD000DF910895DF93CF930F92CDB7DEB789834E
:102BE000A3E5B0E0E3E5F0E080818F778C93A3E587
:102BF000B0E0E3E5F0E0808180648C93A3E5B0E091
:102C0000E3E5F0E0808188608C93A3E5B0E0E3E544
:102C1000F0E0808180628C93A3E5B0E0E3E5F0E032
:102C200080818F7E8C93A3E5B0E0E3E5F0E08081C6
:102C300084608C93A3E5B0E0E3E5F0E080818D7FD4
:102C40008C93A3E5B0E0E3E5F0E0808181608C93B4
:102C500081E063E041E00E943B0AE2E5F0E010829F
:102C60008981853610F084E68983ECE5F0E089817E
:102C7000482F50E0CA019C01220F331FC9019695CD
:102C8000982F882797958795821B930B840F951F04
:102C900024E630E0B9010E943117CB0180830F9008
:102CA000CF91DF910895DF93CF9300D000D0CDB7BF
:102CB000DEB781E089830E9460150E94B6090E94F8
:102CC0001B0A0E94790D0E948D090E94A4129C8308
:102CD0008B838B819C818734910550F085E00E9425
:102CE000941586E00E94941587E00E94941527C0F1
:102CF0008B819C818433910550F085E00E9485157D
:102D000086E00E94941587E00E94941518C08B817C
:102D10009C818131910550F085E00E94851586E007
:102D20000E94851587E00E94941509C085E00E94E5
:102D3000851586E00E94851587E00E94851520E6AE
:102D400030E081E060E0A9010E945E120E94A315BC
:102D50008A838A81882F90E00E94771280E20E9405
:102D6000041086E690E00E94F3118B819C810E9402
:102D700077128BE690E00E94F3118A81883238F056
:102D800081E08983898164E60E94D60923C08A8113
:102D9000833238F081E0898389816BE40E94D6090F
:102DA00019C08A818E3138F081E08983898162E39C
:102DB0000E94D6090FC08A81893138F081E0898369
:102DC000898169E10E94D60905C01982898160E084
:102DD0000E94D6098981882341F02FE630E080E007
:102DE00064E0A9010E945E1207C02AE730E080E09B
:102DF00064E0A9010E945E120E94270A882379F0EC
:102E00000E949A1285E890E00E94F3110E949E09A8
:102E10000E94270A8823E1F70E949A1256CF0E9447
:102E2000AA0953CF629FD001739FF001829FE00DEA
:102E3000F11D649FE00DF11D929FF00D839FF00D39
:102E4000749FF00D659FF00D9927729FB00DE11DE5
:102E5000F91F639FB00DE11DF91FBD01CF011124C2
:102E60000895AA1BBB1B51E107C0AA1FBB1FA617D1
:102E7000B70710F0A61BB70B881F991F5A95A9F723
:102E800080959095BC01CD0108952F923F924F926D
:102E90005F926F927F928F929F92AF92BF92CF92EA
:102EA000DF92EF92FF920F931F93CF93DF93CDB7F3
:102EB000DEB7CA1BDB0B0FB6F894DEBF0FBECDBF6B
:102EC00009942A88398848885F846E847D848C843C
:102ED0009B84AA84B984C884DF80EE80FD800C8145
:102EE0001B81AA81B981CE0FD11D0FB6F894DEBF28
:102EF0000FBECDBFED010895FB019F01E894423064
:102F0000C4F04532B4F44A3029F497FB1EF490958E
:102F100081959F4F642F77270E943117805D8A33F8
:102F20000CF0895D8193CB010097A1F716F45DE267
:102F300051931082C9010C949D17DC01FC01672F8D
:102F400071917723E1F7329704C07C916D93708380
:0E2F50006291AE17BF07C8F30895F894FFCF43
:102F5E0054656D703D004C44523D002520200046C6
:102F6E00414E206973204F4E200046414E2069731A
:102F7E00204F464600437269746963616C20616C30
:102F8E0065727421000000000000000000000102C4
:102F9E0002030303030404040404040404050505E6
:102FAE0005050505050505050505050505060606C0
:102FBE0006060606060606060606060606060606A3
:102FCE000606060606060606060606060607070790
:102FDE000707070707070707070707070707070773
:102FEE000707070707070707070707070707070763
:102FFE000707070707070707070707070707070753
:10300E00070707070707070707070707070808083F
:10301E000808080808080808080808080808080822
:10302E000808080808080808080808080808080812
:10303E000808080808080808080808080808080802
:10304E0008080808080808080808080808080808F2
:10305E0008080808080808080808080808080808E2
:10306E0008080808080808080808080808080808D2
:10307E0008080808080808080808080808080808C2
:0E308E000808080808080808080808080800CC
:00000001FF
